:080000000C9435000C94000083
:100008000C9400000C9400000C9400000C94000068
:100018000C9400000C9400000C9400000C94000058
:100028000C9400000C9400000C9400000C94000048
:100038000C9400000C9400000C9400000C94000038
:100048000C9400000C9400000C94000048656C6C43
:100058006F0080C0060060015400020066015A006B
:100068000000F894EE27ECBBF1E0FBBFEBBFE5BF67
:100078008DE0A2E0BB27ED938A95E9F780E094E054
:10008800A0E6ED930197E9F7ECE5F0E0859195910D
:10009800009761F0A591B59105901590BF01F00109
:1000A80005900D920197E1F7FB01F0CFEFE5EDBF69
:1000B800E4E0EEBFC0E6D1E00C946200EFEFEABBEB
:1000C800E0E0EBBBE7BBE8BBE4BBE5BBE1BBE2BB05
:1000D800A4E167D0D99AE0E0EA93A0E025D0A0E6B1
:1000E800B1E04ED0F7CFFFCFAA93E5B3EF70AE2FB4
:1000F800E881E07FEA2BE5BB82E08A95F1F7AA9ACE
:1001080082E08A95F1F7AA9882E08A95F1F771C0A2
:10011800AA93A881E9DFE881E295E883A881E4DF72
:1001280081E18A95F1F765C0AA93E881F0E0EA5980
:10013800FE4FE081A981AE0FEBDF598048802296FF
:100148000895A2E058D0ACE0E3DFA1E054D0E0E0AD
:100158004E2E5E2E0895AA93A881AA3011F0571446
:1001680048F0E0E0EA934394A42DDEDFA881AA30AA
:1001780009F43FC05394A89AA881CADFA89839C047
:10018800BA93AA931A93A981BA81ED91A983BA83E4
:100198001E2FE03019F0A12FDEDFF5CF188123964E
:1001A8000895AA93E4B3E06FE4BBA29AA09AA19A37
:1001B800AA98A898A9987880E881E058E0936801FF
:1001C800E881E054E0936901A4E1B0E00E940A01EB
:1001D80017D016D015D0A0E287DF81E28A95F1F713
:1001E800A8E296DFA4E094DFA5E892DFA6E090DF1E
:1001F800A8DF219608958CDFA3E0B0E00C940A01F3
:10020800A0E372DF81E28A95F1F70895109639F03C
:100218008AEF90E00197F1F7A8951197C9F708952B
:00000001FF
