:040000000C943B0021
:100004000C9400000C9400000C9400000C9400006C
:100014000C9400000C9400000C9400000C949100CB
:100024000C9400000C9400000C9400000C9400004C
:100034000C9400000C9400000C9400000C9400003C
:100044000C9400000C9400000C9400000C9400002C
:100054001027E80364000A000100001000011000EA
:100064000100000000000000000008000400660019
:100074000000F894EE27ECBBF1E0FBBFEBBFE5BF5B
:100084008DE0A2E0BB27ED938A95E9F780E094E048
:10009400A0E6ED930197E9F7EEE6F0E085919591FE
:1000A400009761F0A591B59105901590BF01F001FD
:1000B40005900D920197E1F7FB01F0CFEFE5EDBF5D
:1000C400E4E0EEBFC0E6D1E00C94BE00A8E30E94D9
:1000D4002F01A1E00E942F01AEE00E942F01A0E8B1
:1000E4000E942F010895AA93E881E8BBE4E0E2BBF3
:1000F400A1E0B0E00E944801E0E00AC0AA93E881D0
:10010400E8BBE5E0E2BBA1E0B0E00E944801E1E029
:10011400E2BBA2E3B0E00E94480121960895EA936D
:10012400FA93EFB7EA93E5E8EDBDEEEEECBDBB2044
:10013400F1F0F40131964F01ECE3F0E0E815F90534
:10014400B1F488249924F30131963F01ECE3F0E003
:10015400E615F70561F466247724F20131962F0140
:10016400E8E1F0E0E415F50511F444245524E9919F
:10017400EFBFF991E99118952897EFE4E883EEE64B
:10018400E983E0E2EA83E4E5EB83E9E6EC83EDE688
:10019400ED83E5E6EE83E0E0EF83EFEFEABBE2E038
:1001A400EBBBEFEFE7BBE0E0E8BBE4BBE5BBE7E0BC
:1001B400E1BBE0E0E2BBEFBDE4E0EEBDE5E8EDBDB0
:1001C400EEEEECBDE0E0E7BDE6BDEBBDEABDE9BDAA
:1001D400E8BDE4E0E9BF789479DFA1E084DFACE036
:1001E40082DF10E0173048F4E12FF0E0DE01AE0FBB
:1001F400BF1FAC9183DF1F5FF5CF17E0143120F4EC
:10020400A4E171DF1F5FFACFE0E09899E1E0BE2E30
:10021400E03011F4D89801C0D89AD2010E94350177
:10022400D2010E943D01D3010E943501D3010E94F5
:100234003D01D4010E943501D401EAE0F0E00E94BE
:100244006E01E05DAE2F5ADF10E0183020F4A0E11B
:100254004ADF1F5FFACFD8CFFFCF0E947500A1E01D
:10026400B0E00C944801EAE0F0E00E946901E05D2E
:10027400AE2F0C948000EAE0F0E00E946E01E05D95
:10028400AE2F0E948000AAE30C948000109639F0EF
:1002940080ED97E00197F1F7A8951197C9F70895B4
:1002A400F195E195F04008950024112490E1AA0FFE
:1002B400BB1F001C111C0E1A1F0A18F40E0E1F1E61
:1002C40001C0A1609A9599F7FD01D001089512D05B
:1002D400EBDF0EF4E5DF0895E894B7FF04C0A095C2
:1002E400B09511966894F7FDDBDFDEDFFD010EF4B7
:1002F400D7DF0895E894F7FF02C0D2DF6894B7FF10
:1003040006C0A095B095119600F8039400FA0895DC
:00000001FF
