:080000000C9435000C94000083
:100008000C9400000C9400000C9400000C94000068
:100018000C9400000C9400000C9400000C94000058
:100028000C9400000C9400000C9400000C94000048
:100038000C9400000C9400000C9400000C94000038
:100048000C9400000C9400000C94000080A0C0E008
:10005800202020416C69696900000900600158008E
:100068000000F894EE27ECBBF1E0FBBFEBBFE5BF67
:100078008DE0A2E0BB27ED938A95E9F780E094E054
:10008800A0E6ED930197E9F7E2E6F0E08591959116
:10009800009761F0A591B59105901590BF01F00109
:1000A80005900D920197E1F7FB01F0CFEFE5EDBF69
:1000B800E4E0EEBFC0E6D1E00C946200E3E0EABB06
:1000C800E2E0EBBBE0E0E7BBE8BBEFEFE4BBE0E07E
:1000D800E5BBE1BBE2BBA4E162D032D0A0E6B1E06F
:1000E8004DD0FFCFFFCFAA93E5B3EF70AE2FE881D5
:1000F800E07FEA2BE5BB81E08A95F1F7AA9A82E0D6
:100108008A95F1F7AA9882E08A95F1F76AC0AA93CE
:10011800A881E9DFE881E295E883A881E4DF81E14D
:100128008A95F1F75EC0AA93E881F0E0EC5AFF4F98
:10013800E491A981AE0FEBDF59804880229608959B
:10014800A2E051D0ACE0E3DFA1E04DD0E0E04E2EDC
:100158005E2E0895AA93A881AA3011F0571440F092
:10016800E0E0EA934394A42DDEDFA881AA30C9F128
:100178005394A89AA881CBDFA89833C0BA93AA93BE
:100188001A93A981BA81ED91A983BA831E2FE03011
:1001980019F0A12FDFDFF5CF188123960895AA93D0
:1001A800E4B3E06FE4BBA29AA09AA19AAA98A8988F
:1001B800A9987880A4E1B0E00E94020119D018D073
:1001C80017D0A0E290DF81E28A95F1F7A4E29FDFE1
:1001D800A9E09DDFA0E29BDFACE099DFA6E097DF16
:1001E800AFDF2196089593DFA3E0B0E00C940201FD
:1001F800A0E379DF81E28A95F1F70895109639F046
:100208008AEF90E00197F1F7A8951197C9F708953B
:00000001FF
