:060000000C9455000C9465
:1000060000000C9400000C9400000C9400000C946A
:1000160000000C9400000C9400000C9482000C94D8
:1000260000000C9400000C9400000C9400000C944A
:1000360000000C9400000C9400000C9400000C943A
:1000460000000C9400000C9400000C940000102793
:10005600E80364000A00010000100001100001001E
:1000660000000000000000000000546170204F46B0
:100076004600546170204F4E00253032643A2530D8
:1000860032643A253032640080C00A0004006600FB
:100096000800600170000700680178000200830113
:1000A6008E000000F894EE27ECBBF1E0FBBFEBBF3F
:1000B600E5BF8DE0A2E0BB27ED938A95E9F780E0E6
:1000C60094E0A0E6ED930197E9F7E0E9F0E0859189
:1000D6009591009761F0A591B59105901590BF0196
:1000E600F00105900D920197E1F7FB01F0CFEFE5E6
:1000F600EDBFE4E0EEBFC0E6D1E00C94AD00EA93BC
:10010600FA93EFB7EA93E5E8EDBDEEEEECBDF2014A
:1001160031962F01ECE3F0E0E415F50529F44424CB
:100126005524F30131963F01ECE3F0E0E615F705BF
:1001360029F466247724F40131964F01E8E1F0E0D2
:10014600E815F90511F488249924E991EFBFF9918E
:10015600E9911895E0E0EABBEBBBEFEFE7BBE0E027
:10016600E8BBEFEFE4BBE0E0E5BBE1BBE2BBEFBD24
:10017600E4E0EEBDE5E8EDBDEEEEECBDE0E0E7BDAA
:10018600E6BDEBBDEABDE9BDE8BDE4E0E9BFA4E13B
:10019600B6D0809912C0F8940A2C0B2831F470D08E
:1001A600E1E0F0E05F01CC24DD24E6E0EA93A0E0A4
:1001B60056D0A0E6B1E092D0C098809B12C0789449
:1001C6000C2C0D2831F45CD0AA24BB24E1E0F0E02D
:1001D6006F01E6E0EA93A0E042D0A8E6B1E07ED067
:1001E600C09AEFE6F1E0FA93EA93EFE7F0E0FA93CC
:1001F600EA93F4010E947203F3010E947203F20172
:100206000E9472038CE00E9425036096E6E0EA9362
:10021600A1E025D0AFE6B1E061D0BBCFFFCFAA9376
:10022600E5B3EF70AE2FE881E07FEA2BE5BB8DE00A
:100236008A95F1F7AA9A8DE08A95F1F7AA988DE04A
:100246008A95F1F789C0AA93A881E9DFE881E2954A
:10025600E883A881E4DF85E88A95F1F77DC0AA9353
:10026600E881F0E0ED57FE4FE081A981AE0FEBDFAC
:10027600E981E0938701E881E09388012296089559
:10028600A2E00E947703ACE0DEDFA1E00E947703E4
:10029600E0E0E0938801E09387010895AA93A8819E
:1002A600AA3031F0E0918901A0918701AE1760F084
:1002B600E0E0EA93A0918801AF5FA0938801CFDFC9
:1002C600A881AA3009F448C0E0918701EF5FE09366
:1002D6008701A89AA881B7DFA8983EC0BA93AA93C7
:1002E6001A93A981BA81ED91A983BA831E2FE030B2
:1002F60019F0A12FD3DFF5CF188123960895AA937D
:10030600E4B3E06FE4BBA29AA09AA19AAA98A8982F
:10031600A998E881E0938901E058E0938501E88196
:10032600E054E0938601A4E1B0E00E94B1030E948C
:100336007D030E947D030E947D03A0E270DF88ECAE
:1003460090E00197F1F7A8E27EDFA4E07CDFA5E864
:100356007ADFA6E078DF94DF21960895BA93AA9310
:100366001A930A93AA81BB8112960E94C8033097FA
:1003760059F1AA81BB8114960E94C8038F01309758
:1003860061F00230E0E01E0798F0F80131978F0126
:10039600AA81BB811496ED93FC93AA81BB81129628
:1003A600ED91FD913196FE93EE933197AC81A0834A
:1003B600AA81BB810E94C803FF232AF0ED91FD911B
:1003C6003196FE93EE9306C0AA81BB81EFEFFFEF55
:1003D600ED93FC931981088125960895BA93AA9303
:1003E60026970E94D50310E0AC85BD85E0E0F0E0DD
:1003F600ED93FC93EA89FB893196EA8BFB8B319767
:10040600E4912E2FE03009F415C1E12FE03039F4E4
:10041600253211F411E002C00E9485030AC1E130C1
:10042600A9F4253219F40E94850302C112E040E0C6
:1004360000E02D3211F401E0FCC02B3211F44BE246
:10044600F8C0203211F440E2F4C002C0E23039F4C0
:1004560050E013E0203311F40068EBC003C0E33032
:1004660009F0E7C0203310F02A3308F007C0AAE0ED
:100476005A9F502DE22FE0535E0FDBC0E22FE3368A
:1004860049F40E948C03E889F989A481AA930E9401
:100496009203CEC0E33741F40E948C030E94980376
:1004A6000E9459031E2F0AC0E03761F40E948C0394
:1004B6000E9498030E9465031E2F086002600F7752
:1004C60030E034C0E43611F0E93611F4046002C0BD
:1004D600E53731F4E4E5F0E0EE83FF8315E00CC088
:1004E600E83511F4086003C0E83709F0A1C0EEE56D
:1004F600F0E0EE83FF8314E002FF14C00E948C0339
:100506000E94A203AB85AA233AF4EA85FB850E94E2
:10051600BF03EA87FB874DE2403011F01F5F01C041
:100526000B7F04C00E948C030E94A20300FD11C031
:10053600151778F407FF08C002FF04C00B7F242FAD
:10054600115001C020E301C020E20E9485035150F2
:10055600EFCF312F01FF17C03030A1F003FF06C0E7
:10056600EE81FF812591EE83FF8305C0AE81BF81B9
:100576002D91AE83BF830E948503503009F0515000
:100586003150EACF4BC020E3EE81FF810E94CC03BD
:10059600E887F987EE81FF813296EE83FF83E8854F
:1005A600F985AA85BB85AE17BF0750F02F5FA885D2
:1005B600B985EA85FB85EA1BFB0BEA87FB87EFCF4C
:1005C6002A3328F003FF02C0295F01C0295D04FD1C
:1005D6001AC0213320F4A885B985119709F409C0FA
:1005E600531710F000FF01C013C020E207FF0BC035
:1005F60020E3006102FF07C00B7F4A930E9492032B
:10060600503009F051500E948503503009F0515086
:100616003150A885B985129708F0B5CF00FF08C0FC
:10062600503031F05150E0E2EA930E949203F8CF45
:1006360010E0E0CEAC85BD850E94C8030E94DC03B5
:1006460064960895FF92F82E26970E94D7030E947B
:10065600AA03309719F4EFEFFFEF23C0DE011696D9
:100666000E94BB038D010E94AA03EE83FF83E0E094
:10067600E887E987DE011A960E94BB030E94C80339
:10068600FA93EA931A930A93E1EBF1E0FA93EA9369
:10069600DE011A96A3DE9F01AE81BF81E0E0EC93F6
:1006A600F9010E94DE032A96FF900895BA93AA9351
:1006B600A991B991EE27FF276D91662311F0319626
:1006C600FBCF0895BA93AA93AA27BB27E991F9917C
:1006D6000590002011F01196FBCFFD0108950E94B0
:1006E600C3030E94D00308950E942601A3E0B0E050
:1006F6000C94B103A0E30E94120188EC90E00197EC
:10070600F1F708952A93AD85BE85EF85F889099599
:100716000895E889F9893497E88BF98B0895AD85B2
:10072600BE85EF85F88909950895A889B989149633
:100736000E94C803EE83FF83AE81BF810895A88916
:10074600B98914960E94C803EA87FB870895DE01DB
:100756001C960E94BB030E94C8030895109639F0A8
:1007660080ED97E00197F1F7A8951197C9F70895DD
:100776000024AF0DB01D0895F195E195F040089560
:100786006F2F660F660B762F0895ED91FC911197EA
:1007960008950590F491E02D08957A936A93FA935B
:1007A600EA9308955A934A933A932A931A930A938B
:1007B60008955D814C813B812A81198108810895C4
:00000001FF
